CARTICLE                                  CCOMPONENT                                             PSALES  CCOMPANY                                  CCUSTOMER                                 CMARKET           CCOUNTRY  CCURRENCY
----------------------------------------  ----------------------------------------  -------------------  ----------------------------------------  ----------------------------------------  ----------------  --------  ---------
A34H478000                                A346477000                                           950,0000  L_NORDIC                                  DOMESTIC                                  DOMESTIC          DK        DKK
A34H478000                                A801472004                                           173,0660  L_NORDIC                                  DOMESTIC                                  DOMESTIC          DK        DKK
A34H47C000                                A34647L000                                           344,0660  L_NORDIC                                  DOMESTIC                                  DOMESTIC          DK        DKK
A34H47C000                                A801472004                                           173,0660  L_NORDIC                                  DOMESTIC                                  DOMESTIC          DK        DKK
A34NND1000                                A342ND1000                                           375,0000  L_NORDIC                                  DOMESTIC                                  DOMESTIC          DK        DKK
A34NND1000                                A343ND1000                                           375,0000  L_NORDIC                                  DOMESTIC                                  DOMESTIC          DK        DKK
A34NND1000                                A822507500                                           180,0000  L_NORDIC                                  DOMESTIC                                  DOMESTIC          DK        DKK
A34NND1000                                H8929930000001                                         0,8000  L_NORDIC                                  DOMESTIC                                  DOMESTIC          DK        DKK
A34NND1000                                H8939610000001                                         0,1000  L_NORDIC                                  DOMESTIC                                  DOMESTIC          DK        DKK
A34NND1000                                H8975120000001                                         0,8200  L_NORDIC                                  DOMESTIC                                  DOMESTIC          DK        DKK
H3113370041201                            WI563.004.100                                          1,0000  L_NORDIC                                  DOMESTIC                                  DOMESTIC          DK        DKK
H4519714323001                            HK92900023                                             0,1000  L_NORDIC                                  DOMESTIC                                  DOMESTIC          DK        DKK
H4519714323001                            HK92900027                                             0,1000  L_NORDIC                                  DOMESTIC                                  DOMESTIC          DK        DKK
H4519714323001                            HQ40700021                                             0,1000  L_NORDIC                                  DOMESTIC                                  DOMESTIC          DK        DKK
H4519714323001                            HQ40999999                                             0,1000  L_NORDIC                                  DOMESTIC                                  DOMESTIC          DK        DKK
H4519714323001                            HQ41000048300                                          0,1000  L_NORDIC                                  DOMESTIC                                  DOMESTIC          DK        DKK
H8262820002861                            A80000007S                                            52,5000  L_NORDIC                                  DOMESTIC                                  DOMESTIC          DK        DKK
H8262820002861                            H8252820000001                                       490,1000  L_NORDIC                                  DOMESTIC                                  DOMESTIC          DK        DKK
H8262820002861                            H8293850000001                                       150,0000  L_NORDIC                                  DOMESTIC                                  DOMESTIC          DK        DKK
H8262820007891                            H8252820000001                                       490,1000  L_NORDIC                                  DOMESTIC                                  DOMESTIC          DK        DKK
H8262820007891                            H8293850000001                                       150,0000  L_NORDIC                                  DOMESTIC                                  DOMESTIC          DK        DKK
H8262820007891                            H8912720000001                                         0,6831  L_NORDIC                                  DOMESTIC                                  DOMESTIC          DK        DKK
H8262820007891                            H8912850000001                                         1,2200  L_NORDIC                                  DOMESTIC                                  DOMESTIC          DK        DKK
H8262820007891                            H8941700000001                                         0,0082  L_NORDIC                                  DOMESTIC                                  DOMESTIC          DK        DKK
H8262820007891                            HK11800229                                             3,8085  L_NORDIC                                  DOMESTIC                                  DOMESTIC          DK        DKK
H8262830002861                            A80000007S                                            52,5000  L_NORDIC                                  DOMESTIC                                  DOMESTIC          DK        DKK
H8262830002861                            H8252830000001                                       490,1000  L_NORDIC                                  DOMESTIC                                  DOMESTIC          DK        DKK
H8262830002861                            H8293850000001                                       150,0000  L_NORDIC                                  DOMESTIC                                  DOMESTIC          DK        DKK
H8262830007891                            H8252830000001                                       490,1000  L_NORDIC                                  DOMESTIC                                  DOMESTIC          DK        DKK
H8262830007891                            H8293850000001                                       150,0000  L_NORDIC                                  DOMESTIC                                  DOMESTIC          DK        DKK
H8262830007891                            H8912720000001                                         0,6831  L_NORDIC                                  DOMESTIC                                  DOMESTIC          DK        DKK
H8262830007891                            H8912850000001                                         1,2200  L_NORDIC                                  DOMESTIC                                  DOMESTIC          DK        DKK
H8262830007891                            H8941700000001                                         0,0082  L_NORDIC                                  DOMESTIC                                  DOMESTIC          DK        DKK
H8262830007891                            HK11800229                                             3,8085  L_NORDIC                                  DOMESTIC                                  DOMESTIC          DK        DKK
H8262860002861                            H8223860000003                                        66,3924  L_NORDIC                                  DOMESTIC                                  DOMESTIC          DK        DKK
H8262860002861                            H8293850000001                                       150,0000  L_NORDIC                                  DOMESTIC                                  DOMESTIC          DK        DKK
H8262860002861                            H8912720000001                                         0,6831  L_NORDIC                                  DOMESTIC                                  DOMESTIC          DK        DKK
H8262860002861                            H8934400000001                                         6,3457  L_NORDIC                                  DOMESTIC                                  DOMESTIC          DK        DKK
H8262860002861                            H8934530000001                                        48,2421  L_NORDIC                                  DOMESTIC                                  DOMESTIC          DK        DKK
H8262860002861                            H8941700000001                                         0,0082  L_NORDIC                                  DOMESTIC                                  DOMESTIC          DK        DKK
H8262860002861                            HK11800229                                             3,8085  L_NORDIC                                  DOMESTIC                                  DOMESTIC          DK        DKK
H8262861002861                            H8223860000003                                        66,3924  L_NORDIC                                  DOMESTIC                                  DOMESTIC          DK        DKK
H8262861002861                            H8293850000001                                       150,0000  L_NORDIC                                  DOMESTIC                                  DOMESTIC          DK        DKK
H8262861002861                            H8912720000001                                         0,6831  L_NORDIC                                  DOMESTIC                                  DOMESTIC          DK        DKK
H8262861002861                            H8934400000001                                         6,3457  L_NORDIC                                  DOMESTIC                                  DOMESTIC          DK        DKK
H8262861002861                            H8934530000001                                        48,2421  L_NORDIC                                  DOMESTIC                                  DOMESTIC          DK        DKK
H8262861002861                            H8941700000001                                         0,0082  L_NORDIC                                  DOMESTIC                                  DOMESTIC          DK        DKK
H8262861002861                            HK11800229                                             3,8085  L_NORDIC                                  DOMESTIC                                  DOMESTIC          DK        DKK
H8262890002861                            H8252880000001                                        89,3643  L_NORDIC                                  DOMESTIC                                  DOMESTIC          DK        DKK
H8262890002861                            H8293850000001                                       150,0000  L_NORDIC                                  DOMESTIC                                  DOMESTIC          DK        DKK
H8262890002861                            H8912720000001                                         0,6831  L_NORDIC                                  DOMESTIC                                  DOMESTIC          DK        DKK
H8262890002861                            H8934400000001                                         6,3457  L_NORDIC                                  DOMESTIC                                  DOMESTIC          DK        DKK
H8262890002861                            H8934530000001                                        48,2421  L_NORDIC                                  DOMESTIC                                  DOMESTIC          DK        DKK
H8262890002861                            H8941700000001                                         0,0082  L_NORDIC                                  DOMESTIC                                  DOMESTIC          DK        DKK
H8262890002861                            HK11800229                                             3,8085  L_NORDIC                                  DOMESTIC                                  DOMESTIC          DK        DKK
H8262891002861                            H8252880000001                                        89,3643  L_NORDIC                                  DOMESTIC                                  DOMESTIC          DK        DKK
H8262891002861                            H8293850000001                                       150,0000  L_NORDIC                                  DOMESTIC                                  DOMESTIC          DK        DKK
H8262891002861                            H8912720000001                                         0,6831  L_NORDIC                                  DOMESTIC                                  DOMESTIC          DK        DKK
H8262891002861                            H8934400000001                                         6,3457  L_NORDIC                                  DOMESTIC                                  DOMESTIC          DK        DKK
H8262891002861                            H8934530000001                                        48,2421  L_NORDIC                                  DOMESTIC                                  DOMESTIC          DK        DKK
H8262891002861                            H8941700000001                                         0,0082  L_NORDIC                                  DOMESTIC                                  DOMESTIC          DK        DKK
H8262891002861                            HK11800229                                             3,8085  L_NORDIC                                  DOMESTIC                                  DOMESTIC          DK        DKK
H8270900007821                            H8241500000001                                       150,0000  L_NORDIC                                  DOMESTIC                                  DOMESTIC          DK        DKK
H8270900007821                            H8280980000001                                       150,0000  L_NORDIC                                  DOMESTIC                                  DOMESTIC          DK        DKK
H8270900007821                            H8929930000001                                       150,0000  L_NORDIC                                  DOMESTIC                                  DOMESTIC          DK        DKK
H8270900007821                            H8939610000001                                        18,4900  L_NORDIC                                  DOMESTIC                                  DOMESTIC          DK        DKK
H8270900007821                            H8950620000001                                       150,0000  L_NORDIC                                  DOMESTIC                                  DOMESTIC          DK        DKK
H8270900007821                            H8961500000001                                       150,0000  L_NORDIC                                  DOMESTIC                                  DOMESTIC          DK        DKK
H8271500007821                            H8241500000001                                      1000,0000  L_NORDIC                                  DOMESTIC                                  DOMESTIC          DK        DKK
H8271500007821                            H8281500007821                                       500,0000  L_NORDIC                                  DOMESTIC                                  DOMESTIC          DK        DKK
H8271504007821                            H8241504000001                                       381,4100  L_NORDIC                                  DOMESTIC                                  DOMESTIC          DK        DKK
H8271504007821                            H8281500000001                                        93,5000  L_NORDIC                                  DOMESTIC                                  DOMESTIC          DK        DKK
H8271504007821                            H8929930000001                                         0,8000  L_NORDIC                                  DOMESTIC                                  DOMESTIC          DK        DKK
H8271504007821                            H8939610000001                                         3,3700  L_NORDIC                                  DOMESTIC                                  DOMESTIC          DK        DKK
H8271504007821                            H8950620000001                                       106,6500  L_NORDIC                                  DOMESTIC                                  DOMESTIC          DK        DKK
H8271504007821                            H8961500000001                                         7,9900  L_NORDIC                                  DOMESTIC                                  DOMESTIC          DK        DKK
H8271510007821                            H8241500007151                                      1000,0000  L_NORDIC                                  DOMESTIC                                  DOMESTIC          DK        DKK
H8271510007821                            H8281500000001                                       205,0400  L_NORDIC                                  DOMESTIC                                  DOMESTIC          DK        DKK
H8271510007821                            H8929930000001                                       100,0000  L_NORDIC                                  DOMESTIC                                  DOMESTIC          DK        DKK
H8271510007821                            H8939610000001                                        18,4900  L_NORDIC                                  DOMESTIC                                  DOMESTIC          DK        DKK
H8271510007821                            H8950620000001                                         0,8200  L_NORDIC                                  DOMESTIC                                  DOMESTIC          DK        DKK
H8271510007821                            H8961500000001                                         0,8200  L_NORDIC                                  DOMESTIC                                  DOMESTIC          DK        DKK
H8271510007821                            HK11800317                                             0,8200  L_NORDIC                                  DOMESTIC                                  DOMESTIC          DK        DKK
H8271514007821                            H8241504007151                                      1000,0000  L_NORDIC                                  DOMESTIC                                  DOMESTIC          DK        DKK
H8271514007821                            H8281500000001                                        93,5000  L_NORDIC                                  DOMESTIC                                  DOMESTIC          DK        DKK
H8271514007821                            H8929930000001                                       150,0000  L_NORDIC                                  DOMESTIC                                  DOMESTIC          DK        DKK
H8271514007821                            H8939610000001                                        18,4900  L_NORDIC                                  DOMESTIC                                  DOMESTIC          DK        DKK
H8271514007821                            H8950620000001                                         0,8200  L_NORDIC                                  DOMESTIC                                  DOMESTIC          DK        DKK
H8271514007821                            H8961500000001                                         0,8200  L_NORDIC                                  DOMESTIC                                  DOMESTIC          DK        DKK
H8271524007821                            H8241514000001                                        89,3643  L_NORDIC                                  DOMESTIC                                  DOMESTIC          DK        DKK
H8271524007821                            H8281500000001                                       205,0400  L_NORDIC                                  DOMESTIC                                  DOMESTIC          DK        DKK
H8271524007821                            H8929930000001                                       100,0000  L_NORDIC                                  DOMESTIC                                  DOMESTIC          DK        DKK
H8271524007821                            H8939610000001                                         0,1000  L_NORDIC                                  DOMESTIC                                  DOMESTIC          DK        DKK
H8271524007821                            H8950620000001                                         0,8200  L_NORDIC                                  DOMESTIC                                  DOMESTIC          DK        DKK
H8271524007821                            H8961500000001                                         0,8200  L_NORDIC                                  DOMESTIC                                  DOMESTIC          DK        DKK
H8271530007821                            H8241510007151                                      1000,0000  L_NORDIC                                  DOMESTIC                                  DOMESTIC          DK        DKK
H8271530007821                            H8281500000001                                       205,0400  L_NORDIC                                  DOMESTIC                                  DOMESTIC          DK        DKK
H8271530007821                            H8929930000001                                       100,0000  L_NORDIC                                  DOMESTIC                                  DOMESTIC          DK        DKK
H8271530007821                            H8939610000001                                       100,0000  L_NORDIC                                  DOMESTIC                                  DOMESTIC          DK        DKK
H8271530007821                            H8950620000001                                       100,6500  L_NORDIC                                  DOMESTIC                                  DOMESTIC          DK        DKK
H8271530007821                            H8961500000001                                         0,8200  L_NORDIC                                  DOMESTIC                                  DOMESTIC          DK        DKK
H8271530007821                            HK11800317                                             0,8200  L_NORDIC                                  DOMESTIC                                  DOMESTIC          DK        DKK
H8271540007821                            H8241520000001                                       150,0000  L_NORDIC                                  DOMESTIC                                  DOMESTIC          DK        DKK
H8271540007821                            H8281500007821                                       200,0000  L_NORDIC                                  DOMESTIC                                  DOMESTIC          DK        DKK
H8271544007821                            H8241524000001                                        89,3643  L_NORDIC                                  DOMESTIC                                  DOMESTIC          DK        DKK
H8271544007821                            H8281500000001                                       205,0400  L_NORDIC                                  DOMESTIC                                  DOMESTIC          DK        DKK
H8271544007821                            H8929930000001                                       100,0000  L_NORDIC                                  DOMESTIC                                  DOMESTIC          DK        DKK
H8271544007821                            H8939610000001                                         0,1000  L_NORDIC                                  DOMESTIC                                  DOMESTIC          DK        DKK
H8271544007821                            H8950620000001                                         0,8200  L_NORDIC                                  DOMESTIC                                  DOMESTIC          DK        DKK
H8271544007821                            H8961500000001                                         0,8200  L_NORDIC                                  DOMESTIC                                  DOMESTIC          DK        DKK
H8271554007821                            H139ZK11800317                                         0,1000  L_NORDIC                                  DOMESTIC                                  DOMESTIC          DK        DKK
H8271554007821                            H8241524007151                                       100,0000  L_NORDIC                                  DOMESTIC                                  DOMESTIC          DK        DKK
H8271554007821                            H8281500000001                                        93,5000  L_NORDIC                                  DOMESTIC                                  DOMESTIC          DK        DKK
H8271554007821                            H8929930000001                                         0,1000  L_NORDIC                                  DOMESTIC                                  DOMESTIC          DK        DKK
H8271554007821                            H8939610000001                                         0,1000  L_NORDIC                                  DOMESTIC                                  DOMESTIC          DK        DKK
H8271554007821                            H8950620000001                                         0,8200  L_NORDIC                                  DOMESTIC                                  DOMESTIC          DK        DKK
H8271554007821                            H8961500000001                                         0,8200  L_NORDIC                                  DOMESTIC                                  DOMESTIC          DK        DKK
H8273700007841                            A342ND1000                                           375,0000  L_NORDIC                                  DOMESTIC                                  DOMESTIC          DK        DKK
H8273700007841                            H8283700000181                                        52,5000  L_NORDIC                                  DOMESTIC                                  DOMESTIC          DK        DKK
H8273700007841                            H8929930000001                                        52,5000  L_NORDIC                                  DOMESTIC                                  DOMESTIC          DK        DKK
H8273700007841                            H8939610000001                                        18,4900  L_NORDIC                                  DOMESTIC                                  DOMESTIC          DK        DKK
H8273700007841                            H8950640000001                                        52,5000  L_NORDIC                                  DOMESTIC                                  DOMESTIC          DK        DKK
H8273700007841                            H8975120000001                                        52,5000  L_NORDIC                                  DOMESTIC                                  DOMESTIC          DK        DKK
H8279500007371                            H139ZK11800317                                         0,1000  L_NORDIC                                  DOMESTIC                                  DOMESTIC          DK        DKK
H8279500007371                            H8249500000001                                       210,0000  L_NORDIC                                  DOMESTIC                                  DOMESTIC          DK        DKK
H8279500007371                            H8289550000001                                       100,0000  L_NORDIC                                  DOMESTIC                                  DOMESTIC          DK        DKK
H8279500007371                            H8929930000001                                         0,1000  L_NORDIC                                  DOMESTIC                                  DOMESTIC          DK        DKK
H8279500007371                            H8939610000001                                         0,1000  L_NORDIC                                  DOMESTIC                                  DOMESTIC          DK        DKK
H8279500007371                            H8950610000001                                       100,0000  L_NORDIC                                  DOMESTIC                                  DOMESTIC          DK        DKK
H8279500007371                            H8975110000001                                       100,0000  L_NORDIC                                  DOMESTIC                                  DOMESTIC          DK        DKK
H8279500007801                            H8249500000001                                       210,0000  L_NORDIC                                  DOMESTIC                                  DOMESTIC          DK        DKK
H8279500007801                            H8289550000001                                       120,7500  L_NORDIC                                  DOMESTIC                                  DOMESTIC          DK        DKK
H8279500007801                            H8939610000001                                         6,7745  L_NORDIC                                  DOMESTIC                                  DOMESTIC          DK        DKK
H8279500007801                            H8949520000001                                       189,4592  L_NORDIC                                  DOMESTIC                                  DOMESTIC          DK        DKK
H8279500007801                            HK11800247                                             5,7980  L_NORDIC                                  DOMESTIC                                  DOMESTIC          DK        DKK
H8279504007801                            H8249504000001                                       210,0000  L_NORDIC                                  DOMESTIC                                  DOMESTIC          DK        DKK
H8279504007801                            H8289550000001                                       120,7500  L_NORDIC                                  DOMESTIC                                  DOMESTIC          DK        DKK
H8279504007801                            H8939610000001                                         6,7745  L_NORDIC                                  DOMESTIC                                  DOMESTIC          DK        DKK
H8279504007801                            H8949520000001                                       189,4592  L_NORDIC                                  DOMESTIC                                  DOMESTIC          DK        DKK
H8279504007801                            HK11800247                                             5,7980  L_NORDIC                                  DOMESTIC                                  DOMESTIC          DK        DKK
H8279510007801                            H8249500007151                                       210,0000  L_NORDIC                                  DOMESTIC                                  DOMESTIC          DK        DKK
H8279510007801                            H8289550000001                                       120,7500  L_NORDIC                                  DOMESTIC                                  DOMESTIC          DK        DKK
H8279510007801                            H8939610000001                                         0,1000  L_NORDIC                                  DOMESTIC                                  DOMESTIC          DK        DKK
H8279510007801                            H8949520000001                                       189,4592  L_NORDIC                                  DOMESTIC                                  DOMESTIC          DK        DKK
H8279510007801                            HK11800247                                             5,7980  L_NORDIC                                  DOMESTIC                                  DOMESTIC          DK        DKK
H8279514007801                            H8249504007151                                       210,0000  L_NORDIC                                  DOMESTIC                                  DOMESTIC          DK        DKK
H8279514007801                            H8289550000001                                       120,7500  L_NORDIC                                  DOMESTIC                                  DOMESTIC          DK        DKK
H8279514007801                            H8939610000001                                         0,1000  L_NORDIC                                  DOMESTIC                                  DOMESTIC          DK        DKK
H8279514007801                            H8949520000001                                       189,4592  L_NORDIC                                  DOMESTIC                                  DOMESTIC          DK        DKK
H8279514007801                            HK11800247                                             5,7980  L_NORDIC                                  DOMESTIC                                  DOMESTIC          DK        DKK
H8279520007801                            H8249510000001                                       130,0000  L_NORDIC                                  DOMESTIC                                  DOMESTIC          DK        DKK
H8279520007801                            H8289550000001                                       120,7500  L_NORDIC                                  DOMESTIC                                  DOMESTIC          DK        DKK
H8279520007801                            H8939610000001                                         0,1000  L_NORDIC                                  DOMESTIC                                  DOMESTIC          DK        DKK
H8279520007801                            H8949520000001                                       189,4592  L_NORDIC                                  DOMESTIC                                  DOMESTIC          DK        DKK
H8279520007801                            HK11800247                                             5,7980  L_NORDIC                                  DOMESTIC                                  DOMESTIC          DK        DKK
H8279524007801                            H8249514000001                                       150,0000  L_NORDIC                                  DOMESTIC                                  DOMESTIC          DK        DKK
H8279524007801                            H8289550000001                                       120,7500  L_NORDIC                                  DOMESTIC                                  DOMESTIC          DK        DKK
H8279524007801                            H8939610000001                                         0,1000  L_NORDIC                                  DOMESTIC                                  DOMESTIC          DK        DKK
H8279524007801                            H8949520000001                                       189,4592  L_NORDIC                                  DOMESTIC                                  DOMESTIC          DK        DKK
H8279524007801                            HK11800247                                             5,7980  L_NORDIC                                  DOMESTIC                                  DOMESTIC          DK        DKK
H8279530007801                            H8249510007151                                       150,0000  L_NORDIC                                  DOMESTIC                                  DOMESTIC          DK        DKK
H8279530007801                            H8289550000001                                       120,7500  L_NORDIC                                  DOMESTIC                                  DOMESTIC          DK        DKK
H8279530007801                            H8939610000001                                         0,1000  L_NORDIC                                  DOMESTIC                                  DOMESTIC          DK        DKK
H8279530007801                            H8949520000001                                       189,4592  L_NORDIC                                  DOMESTIC                                  DOMESTIC          DK        DKK
H8279530007801                            HK11800247                                             5,7980  L_NORDIC                                  DOMESTIC                                  DOMESTIC          DK        DKK
H8279534007801                            H8249514007151                                       150,0000  L_NORDIC                                  DOMESTIC                                  DOMESTIC          DK        DKK
H8279534007801                            H8289550000001                                       120,7500  L_NORDIC                                  DOMESTIC                                  DOMESTIC          DK        DKK
H8279534007801                            H8939610000001                                         0,1000  L_NORDIC                                  DOMESTIC                                  DOMESTIC          DK        DKK
H8279534007801                            H8949520000001                                       189,4592  L_NORDIC                                  DOMESTIC                                  DOMESTIC          DK        DKK
H8279534007801                            HK11800247                                             5,7980  L_NORDIC                                  DOMESTIC                                  DOMESTIC          DK        DKK
H8279540007801                            H8289550000001                                       120,7500  L_NORDIC                                  DOMESTIC                                  DOMESTIC          DK        DKK
H8279540007801                            H8939610000001                                         0,1000  L_NORDIC                                  DOMESTIC                                  DOMESTIC          DK        DKK
H8279540007801                            H8949520000001                                       189,4592  L_NORDIC                                  DOMESTIC                                  DOMESTIC          DK        DKK
H8279540007801                            HK11800247                                             5,7980  L_NORDIC                                  DOMESTIC                                  DOMESTIC          DK        DKK
H8279544007801                            H8289550000001                                       120,7500  L_NORDIC                                  DOMESTIC                                  DOMESTIC          DK        DKK
H8279544007801                            H8939610000001                                         0,1000  L_NORDIC                                  DOMESTIC                                  DOMESTIC          DK        DKK
H8279544007801                            H8949520000001                                       189,4592  L_NORDIC                                  DOMESTIC                                  DOMESTIC          DK        DKK
H8279544007801                            HK11800247                                             5,7980  L_NORDIC                                  DOMESTIC                                  DOMESTIC          DK        DKK
H8279554007801                            H8249524007151                                       392,0000  L_NORDIC                                  DOMESTIC                                  DOMESTIC          DK        DKK
H8279554007801                            H8289550000001                                       120,7500  L_NORDIC                                  DOMESTIC                                  DOMESTIC          DK        DKK
H8279554007801                            H8939610000001                                         0,1000  L_NORDIC                                  DOMESTIC                                  DOMESTIC          DK        DKK
H8279554007801                            H8949520000001                                       189,4592  L_NORDIC                                  DOMESTIC                                  DOMESTIC          DK        DKK
H8279554007801                            HK11800247                                             5,7980  L_NORDIC                                  DOMESTIC                                  DOMESTIC          DK        DKK
H8279564007371                            H8249534000001                                       255,9800  L_NORDIC                                  DOMESTIC                                  DOMESTIC          DK        DKK
H8279564007371                            H8289550000001                                       215,1713  L_NORDIC                                  DOMESTIC                                  DOMESTIC          DK        DKK
H8279564007371                            H8929930000001                                         1,7500  L_NORDIC                                  DOMESTIC                                  DOMESTIC          DK        DKK
H8279564007371                            H8939610000001                                        13,2700  L_NORDIC                                  DOMESTIC                                  DOMESTIC          DK        DKK
H8279564007371                            H8950610000001                                         1,2600  L_NORDIC                                  DOMESTIC                                  DOMESTIC          DK        DKK
H8279564007371                            H8975110000001                                         1,2600  L_NORDIC                                  DOMESTIC                                  DOMESTIC          DK        DKK
H8279564007801                            H8289550000001                                       120,7500  L_NORDIC                                  DOMESTIC                                  DOMESTIC          DK        DKK
H8279564007801                            H8939610000001                                         0,1000  L_NORDIC                                  DOMESTIC                                  DOMESTIC          DK        DKK
H8279564007801                            H8949520000001                                       189,4592  L_NORDIC                                  DOMESTIC                                  DOMESTIC          DK        DKK
H8279564007801                            HK11800247                                             5,7980  L_NORDIC                                  DOMESTIC                                  DOMESTIC          DK        DKK
H8279570007801                            H8249530007151                                       413,5800  L_NORDIC                                  DOMESTIC                                  DOMESTIC          DK        DKK
H8279570007801                            H8289550000001                                       201,4509  L_NORDIC                                  DOMESTIC                                  DOMESTIC          DK        DKK
H8279570007801                            H8939610000001                                        43,5300  L_NORDIC                                  DOMESTIC                                  DOMESTIC          DK        DKK
H8279570007801                            H8949520000001                                       300,2400  L_NORDIC                                  DOMESTIC                                  DOMESTIC          DK        DKK
H8279574007801                            H8289550000001                                       120,7500  L_NORDIC                                  DOMESTIC                                  DOMESTIC          DK        DKK
H8279574007801                            H8939610000001                                         0,1000  L_NORDIC                                  DOMESTIC                                  DOMESTIC          DK        DKK
H8279574007801                            H8949520000001                                       189,4592  L_NORDIC                                  DOMESTIC                                  DOMESTIC          DK        DKK
H8279574007801                            HK11800247                                             5,7980  L_NORDIC                                  DOMESTIC                                  DOMESTIC          DK        DKK
H8279600007811                            H8249500000001                                       210,0000  L_NORDIC                                  DOMESTIC                                  DOMESTIC          DK        DKK
H8279600007811                            H8289550000001                                       120,7500  L_NORDIC                                  DOMESTIC                                  DOMESTIC          DK        DKK
H8279600007811                            H8909570000001                                         8,5956  L_NORDIC                                  DOMESTIC                                  DOMESTIC          DK        DKK
H8279600007811                            H8928300000001                                         6,2241  L_NORDIC                                  DOMESTIC                                  DOMESTIC          DK        DKK
H8279600007811                            H8939610000001                                         0,1000  L_NORDIC                                  DOMESTIC                                  DOMESTIC          DK        DKK
H8279600007811                            H8949520000001                                       189,4592  L_NORDIC                                  DOMESTIC                                  DOMESTIC          DK        DKK
H8279600007811                            HK11800247                                             5,7980  L_NORDIC                                  DOMESTIC                                  DOMESTIC          DK        DKK
H8279610007811                            H8249500007151                                       210,0000  L_NORDIC                                  DOMESTIC                                  DOMESTIC          DK        DKK
H8279610007811                            H8289550000001                                       120,7500  L_NORDIC                                  DOMESTIC                                  DOMESTIC          DK        DKK
H8279610007811                            H8909570000001                                         8,5956  L_NORDIC                                  DOMESTIC                                  DOMESTIC          DK        DKK
H8279610007811                            H8928300000001                                         6,2241  L_NORDIC                                  DOMESTIC                                  DOMESTIC          DK        DKK
H8279610007811                            H8939610000001                                         0,1000  L_NORDIC                                  DOMESTIC                                  DOMESTIC          DK        DKK
H8279610007811                            H8949520000001                                         1,1000  L_NORDIC                                  DOMESTIC                                  DOMESTIC          DK        DKK
H8279620007811                            H8249510000001                                       130,0000  L_NORDIC                                  DOMESTIC                                  DOMESTIC          DK        DKK
H8279620007811                            H8289550000001                                       120,7500  L_NORDIC                                  DOMESTIC                                  DOMESTIC          DK        DKK
H8279620007811                            H8909570000001                                         8,5956  L_NORDIC                                  DOMESTIC                                  DOMESTIC          DK        DKK
H8279620007811                            H8928300000001                                        17,3752  L_NORDIC                                  DOMESTIC                                  DOMESTIC          DK        DKK
H8279620007811                            H8939610000001                                         0,1000  L_NORDIC                                  DOMESTIC                                  DOMESTIC          DK        DKK
H8279620007811                            H8949520000001                                       189,4592  L_NORDIC                                  DOMESTIC                                  DOMESTIC          DK        DKK
H8279620007811                            HK11800247                                             5,7980  L_NORDIC                                  DOMESTIC                                  DOMESTIC          DK        DKK
H8279630007811                            H8249510007151                                       367,9500  L_NORDIC                                  DOMESTIC                                  DOMESTIC          DK        DKK
H8279630007811                            H8289550000001                                       216,3955  L_NORDIC                                  DOMESTIC                                  DOMESTIC          DK        DKK
H8279630007811                            H8909570000001                                         8,5956  L_NORDIC                                  DOMESTIC                                  DOMESTIC          DK        DKK
H8279630007811                            H8928300000001                                         6,2241  L_NORDIC                                  DOMESTIC                                  DOMESTIC          DK        DKK
H8279630007811                            H8939610000001                                        42,0500  L_NORDIC                                  DOMESTIC                                  DOMESTIC          DK        DKK
H8279630007811                            H8949520000001                                       262,8200  L_NORDIC                                  DOMESTIC                                  DOMESTIC          DK        DKK
H8279640007811                            H8249520000001                                       107,7100  L_NORDIC                                  DOMESTIC                                  DOMESTIC          DK        DKK
H8279640007811                            H8289550000001                                       230,7950  L_NORDIC                                  DOMESTIC                                  DOMESTIC          DK        DKK
H8279640007811                            H8909570000001                                         8,5956  L_NORDIC                                  DOMESTIC                                  DOMESTIC          DK        DKK
H8279640007811                            H8928300000001                                         6,2241  L_NORDIC                                  DOMESTIC                                  DOMESTIC          DK        DKK
H8279640007811                            H8939610000001                                       188,0000  L_NORDIC                                  DOMESTIC                                  DOMESTIC          DK        DKK
H8279640007811                            H8949520000001                                       452,8280  L_NORDIC                                  DOMESTIC                                  DOMESTIC          DK        DKK
H8279640007811                            HK11800247                                           107,7100  L_NORDIC                                  DOMESTIC                                  DOMESTIC          DK        DKK
H8609614641041                            H4834010964641                                      1611,7000  L_NORDIC                                  DOMESTIC                                  DOMESTIC          DK        DKK
H8609614641041                            H8179630001041                                      1611,7000  L_NORDIC                                  DOMESTIC                                  DOMESTIC          DK        DKK
H8609624231041                            H4834020964231                                      1404,4238  L_NORDIC                                  DOMESTIC                                  DOMESTIC          DK        DKK
H8609624231041                            H8179630001041                                       671,9570  L_NORDIC                                  DOMESTIC                                  DOMESTIC          DK        DKK
H8609624631041                            H4834020964631                                      1684,0950  L_NORDIC                                  DOMESTIC                                  DOMESTIC          DK        DKK
H8609624631041                            H8179630001041                                       671,9570  L_NORDIC                                  DOMESTIC                                  DOMESTIC          DK        DKK
H8609624641041                            H4834020964641                                      1489,5608  L_NORDIC                                  DOMESTIC                                  DOMESTIC          DK        DKK
H8609624641041                            H8179630001041                                       671,9570  L_NORDIC                                  DOMESTIC                                  DOMESTIC          DK        DKK
H8609624801041                            H4834020964801                                      1489,5608  L_NORDIC                                  DOMESTIC                                  DOMESTIC          DK        DKK
H8609624801041                            H8179630001041                                       671,9570  L_NORDIC                                  DOMESTIC                                  DOMESTIC          DK        DKK
H8609634631041                            H4834710964631                                      2363,9100  L_NORDIC                                  DOMESTIC                                  DOMESTIC          DK        DKK
H8609634631041                            H8179650001041                                      1857,3600  L_NORDIC                                  DOMESTIC                                  DOMESTIC          DK        DKK
H8609634641041                            H4834710964641                                      6432,0000  L_NORDIC                                  DOMESTIC                                  DOMESTIC          DK        DKK
H8609634641041                            H8179650001041                                      6432,0000  L_NORDIC                                  DOMESTIC                                  DOMESTIC          DK        DKK
H8609634751041                            H4834710964751                                       500,0000  L_NORDIC                                  DOMESTIC                                  DOMESTIC          DK        DKK
H8609634751041                            H8179650001041                                       500,0000  L_NORDIC                                  DOMESTIC                                  DOMESTIC          DK        DKK
H8609634801041                            H4834710964801                                       200,2500  L_NORDIC                                  DOMESTIC                                  DOMESTIC          DK        DKK
H8609634801041                            H8179650001041                                       722,6544  L_NORDIC                                  DOMESTIC                                  DOMESTIC          DK        DKK
H8609644631041                            H4834720964631                                      1476,2852  L_NORDIC                                  DOMESTIC                                  DOMESTIC          DK        DKK
H8609644631041                            H8179650001041                                       722,6544  L_NORDIC                                  DOMESTIC                                  DOMESTIC          DK        DKK
H8609644751041                            H4834720964751                                         0,1000  L_NORDIC                                  DOMESTIC                                  DOMESTIC          DK        DKK
H8609644751041                            H8179650001041                                       500,0000  L_NORDIC                                  DOMESTIC                                  DOMESTIC          DK        DKK
H8609644801041                            H4834720964801                                      1896,7050  L_NORDIC                                  DOMESTIC                                  DOMESTIC          DK        DKK
H8609644801041                            H8179650001041                                       722,6544  L_NORDIC                                  DOMESTIC                                  DOMESTIC          DK        DKK
H8609654631041                            H4835310964631                                      1500,0000  L_NORDIC                                  DOMESTIC                                  DOMESTIC          DK        DKK
H8609654631041                            H8179670001041                                       887,4450  L_NORDIC                                  DOMESTIC                                  DOMESTIC          DK        DKK
H8609664231041                            H4835320964231                                      1896,7050  L_NORDIC                                  DOMESTIC                                  DOMESTIC          DK        DKK
H8609664231041                            H8179670001041                                       887,4450  L_NORDIC                                  DOMESTIC                                  DOMESTIC          DK        DKK
H8609664631041                            H4835320964631                                      1635,6886  L_NORDIC                                  DOMESTIC                                  DOMESTIC          DK        DKK
H8609664631041                            H8179670001041                                       887,4450  L_NORDIC                                  DOMESTIC                                  DOMESTIC          DK        DKK
H8609664641041                            H4835320964641                                      1684,0950  L_NORDIC                                  DOMESTIC                                  DOMESTIC          DK        DKK
H8609664641041                            H8179670001041                                       887,4450  L_NORDIC                                  DOMESTIC                                  DOMESTIC          DK        DKK
H8609664801041                            H4835320964801                                      1715,8232  L_NORDIC                                  DOMESTIC                                  DOMESTIC          DK        DKK
H8609664801041                            H8179670001041                                       887,4450  L_NORDIC                                  DOMESTIC                                  DOMESTIC          DK        DKK
H8619570000001                            H8209660000001                                        66,3924  L_NORDIC                                  DOMESTIC                                  DOMESTIC          DK        DKK
H8619570000001                            H8928270000001                                         6,2241  L_NORDIC                                  DOMESTIC                                  DOMESTIC          DK        DKK
H8619570000001                            H8939563000001                                       257,7531  L_NORDIC                                  DOMESTIC                                  DOMESTIC          DK        DKK
H8619570000001                            H8952510000001                                       150,0000  L_NORDIC                                  DOMESTIC                                  DOMESTIC          DK        DKK
H8619624751041                            H4834060964751                                         0,8000  L_NORDIC                                  DOMESTIC                                  DOMESTIC          DK        DKK
H8619624751041                            H8179630001041                                         0,8000  L_NORDIC                                  DOMESTIC                                  DOMESTIC          DK        DKK
H8619664751041                            H4835360964751                                       260,0000  L_NORDIC                                  DOMESTIC                                  DOMESTIC          DK        DKK
H8619664751041                            H8179670001041                                       278,0000  L_NORDIC                                  DOMESTIC                                  DOMESTIC          DK        DKK
H8629603301041                            H4453120153301                                      1200,0000  L_NORDIC                                  DOMESTIC                                  DOMESTIC          DK        DKK
H8629603301041                            H8179630001041                                       333,1500  L_NORDIC                                  DOMESTIC                                  DOMESTIC          DK        DKK
H8629613301041                            H4453320153301                                      2212,5000  L_NORDIC                                  DOMESTIC                                  DOMESTIC          DK        DKK
H8629613301041                            H8179650001041                                       279,3000  L_NORDIC                                  DOMESTIC                                  DOMESTIC          DK        DKK
H8631503301041                            H4452010153301                                      1065,6400  L_NORDIC                                  DOMESTIC                                  DOMESTIC          DK        DKK
H8631503301041                            H8101500001041                                       234,7151  L_NORDIC                                  DOMESTIC                                  DOMESTIC          DK        DKK
H8631503311041                            H4452010153311                                      1497,1900  L_NORDIC                                  DOMESTIC                                  DOMESTIC          DK        DKK
H8631503311041                            H8101500001041                                       234,7151  L_NORDIC                                  DOMESTIC                                  DOMESTIC          DK        DKK
H8639613301041                            H4452610153301                                       952,4600  L_NORDIC                                  DOMESTIC                                  DOMESTIC          DK        DKK
H8639613301041                            H8109540001041                                       231,7155  L_NORDIC                                  DOMESTIC                                  DOMESTIC          DK        DKK
H8639623301041                            H4452620153301                                      1065,6400  L_NORDIC                                  DOMESTIC                                  DOMESTIC          DK        DKK
H8639623301041                            H8109540001041                                       231,7155  L_NORDIC                                  DOMESTIC                                  DOMESTIC          DK        DKK
H8639633301041                            H4452630153301                                      1065,6400  L_NORDIC                                  DOMESTIC                                  DOMESTIC          DK        DKK
H8639633301041                            H8109540001041                                       219,5590  L_NORDIC                                  DOMESTIC                                  DOMESTIC          DK        DKK
H8649602631041                            H4022721102631                                       200,0000  L_NORDIC                                  DOMESTIC                                  DOMESTIC          DK        DKK
H8649602631041                            H8179630001041                                         0,8000  L_NORDIC                                  DOMESTIC                                  DOMESTIC          DK        DKK
H8649612601041                            H4023721102601                                       200,0000  L_NORDIC                                  DOMESTIC                                  DOMESTIC          DK        DKK
H8649612601041                            H8179650001041                                       279,0000  L_NORDIC                                  DOMESTIC                                  DOMESTIC          DK        DKK
H8649622601041                            H4024321102601                                       255,0000  L_NORDIC                                  DOMESTIC                                  DOMESTIC          DK        DKK
H8649622601041                            H8179670001041                                       278,0000  L_NORDIC                                  DOMESTIC                                  DOMESTIC          DK        DKK
H8649622621041                            H4024321102621                                      1179,7400  L_NORDIC                                  DOMESTIC                                  DOMESTIC          DK        DKK
H8649622621041                            H8179670001041                                      1155,8000  L_NORDIC                                  DOMESTIC                                  DOMESTIC          DK        DKK
H8649632601041                            H8179690001041                                      1250,0000  L_NORDIC                                  DOMESTIC                                  DOMESTIC          DK        DKK
H8649632611071                            H4024621102611                                       300,0000  L_NORDIC                                  DOMESTIC                                  DOMESTIC          DK        DKK
H8649632611071                            H8179690001071                                      1250,0000  L_NORDIC                                  DOMESTIC                                  DOMESTIC          DK        DKK
H8649632621041                            H8179690001041                                      1250,0000  L_NORDIC                                  DOMESTIC                                  DOMESTIC          DK        DKK
H8649639991041                            H8179690001041                                      1250,0000  L_NORDIC                                  DOMESTIC                                  DOMESTIC          DK        DKK
HLNO8209580001                            H8209580000001                                       179,9902  L_NORDIC                                  DOMESTIC                                  DOMESTIC          DK        DKK
HLNO8209580001                            H8909523000001                                       240,4238  L_NORDIC                                  DOMESTIC                                  DOMESTIC          DK        DKK
HLNO8209580002                            H8209580000001                                       179,9902  L_NORDIC                                  DOMESTIC                                  DOMESTIC          DK        DKK
HLNO8209580002                            H8909533000001                                       223,1832  L_NORDIC                                  DOMESTIC                                  DOMESTIC          DK        DKK
H8251580000001                            H139ZK11800135                                         9,1267  L_NORDIC                                  DOMESTIC                                  DOMESTIC          NO        DKK
H8262830002861                            A80000007S                                           170,8300  L_NORDIC                                  DOMESTIC                                  DOMESTIC          NO        DKK
H8262830002861                            H8252830000001                                        11,8267  L_NORDIC                                  DOMESTIC                                  DOMESTIC          NO        DKK
H8262830002861                            H8293850000001                                       106,1311  L_NORDIC                                  DOMESTIC                                  DOMESTIC          NO        DKK
H8271500007821                            H8241500000001                                       751,2270  L_NORDIC                                  DOMESTIC                                  DOMESTIC          NO        DKK
H8271500007821                            H8281500007821                                       751,2270  L_NORDIC                                  DOMESTIC                                  DOMESTIC          NO        DKK
H8271504007821                            H8241504000001                                       327,2052  L_NORDIC                                  DOMESTIC                                  DOMESTIC          NO        DKK
H8271504007821                            H8281500000001                                        69,0122  L_NORDIC                                  DOMESTIC                                  DOMESTIC          NO        DKK
H8271504007821                            H8929930000001                                         1,3373  L_NORDIC                                  DOMESTIC                                  DOMESTIC          NO        DKK
H8271504007821                            H8939610000001                                         2,4736  L_NORDIC                                  DOMESTIC                                  DOMESTIC          NO        DKK
H8271504007821                            H8950620000001                                        15,3684  L_NORDIC                                  DOMESTIC                                  DOMESTIC          NO        DKK
H8271504007821                            H8961500000001                                         5,5191  L_NORDIC                                  DOMESTIC                                  DOMESTIC          NO        DKK
H8271510007821                            H8241500007151                                       268,9993  L_NORDIC                                  DOMESTIC                                  DOMESTIC          NO        DKK
H8271510007821                            H8281500000001                                        79,6949  L_NORDIC                                  DOMESTIC                                  DOMESTIC          NO        DKK
H8271510007821                            H8929930000001                                         1,7779  L_NORDIC                                  DOMESTIC                                  DOMESTIC          NO        DKK
H8271510007821                            H8939610000001                                        13,9138  L_NORDIC                                  DOMESTIC                                  DOMESTIC          NO        DKK
H8271510007821                            H8950620000001                                       128,5477  L_NORDIC                                  DOMESTIC                                  DOMESTIC          NO        DKK
H8271510007821                            H8961500000001                                         6,8023  L_NORDIC                                  DOMESTIC                                  DOMESTIC          NO        DKK
H8271510007821                            HK11800317                                             3,3238  L_NORDIC                                  DOMESTIC                                  DOMESTIC          NO        DKK
H8271530007821                            H8241510007151                                       268,9993  L_NORDIC                                  DOMESTIC                                  DOMESTIC          NO        DKK
H8271530007821                            H8281500000001                                        79,6949  L_NORDIC                                  DOMESTIC                                  DOMESTIC          NO        DKK
H8271530007821                            H8929930000001                                         1,7779  L_NORDIC                                  DOMESTIC                                  DOMESTIC          NO        DKK
H8271530007821                            H8939610000001                                        13,9138  L_NORDIC                                  DOMESTIC                                  DOMESTIC          NO        DKK
H8271530007821                            H8950620000001                                       128,5477  L_NORDIC                                  DOMESTIC                                  DOMESTIC          NO        DKK
H8271530007821                            H8961500000001                                         6,8023  L_NORDIC                                  DOMESTIC                                  DOMESTIC          NO        DKK
H8271530007821                            HK11800317                                             3,3238  L_NORDIC                                  DOMESTIC                                  DOMESTIC          NO        DKK
H8279510007371                            H8249500007151                                         0,7730  L_NORDIC                                  DOMESTIC                                  DOMESTIC          NO        DKK
H8279510007371                            H8289550000001                                       437,6843  L_NORDIC                                  DOMESTIC                                  DOMESTIC          NO        DKK
H8279510007371                            H8929930000001                                         0,7730  L_NORDIC                                  DOMESTIC                                  DOMESTIC          NO        DKK
H8279510007371                            H8939610000001                                         0,7730  L_NORDIC                                  DOMESTIC                                  DOMESTIC          NO        DKK
H8279510007371                            H8950610000001                                       252,5347  L_NORDIC                                  DOMESTIC                                  DOMESTIC          NO        DKK
H8279510007371                            H8975110000001                                         0,7730  L_NORDIC                                  DOMESTIC                                  DOMESTIC          NO        DKK
H8279514007371                            H8249504007151                                       221,7711  L_NORDIC                                  DOMESTIC                                  DOMESTIC          NO        DKK
H8279514007371                            H8289550000001                                        89,5587  L_NORDIC                                  DOMESTIC                                  DOMESTIC          NO        DKK
H8279514007371                            H8929930000001                                         1,3534  L_NORDIC                                  DOMESTIC                                  DOMESTIC          NO        DKK
H8279514007371                            H8939610000001                                         2,5046  L_NORDIC                                  DOMESTIC                                  DOMESTIC          NO        DKK
H8279514007371                            H8950610000001                                       252,5347  L_NORDIC                                  DOMESTIC                                  DOMESTIC          NO        DKK
H8279514007371                            H8975110000001                                         0,0383  L_NORDIC                                  DOMESTIC                                  DOMESTIC          NO        DKK
H8279530007371                            H8249510007151                                       263,3026  L_NORDIC                                  DOMESTIC                                  DOMESTIC          NO        DKK
H8279530007371                            H8289550000001                                        89,5587  L_NORDIC                                  DOMESTIC                                  DOMESTIC          NO        DKK
H8279530007371                            H8929930000001                                         1,3534  L_NORDIC                                  DOMESTIC                                  DOMESTIC          NO        DKK
H8279530007371                            H8939610000001                                         2,5046  L_NORDIC                                  DOMESTIC                                  DOMESTIC          NO        DKK
H8279530007371                            H8950610000001                                       252,5347  L_NORDIC                                  DOMESTIC                                  DOMESTIC          NO        DKK
H8279530007371                            H8975110000001                                         0,0383  L_NORDIC                                  DOMESTIC                                  DOMESTIC          NO        DKK
H8609644631041                            H4834720964631                                      1852,6168  L_NORDIC                                  DOMESTIC                                  DOMESTIC          NO        DKK
H8609644631041                            H8179650001041                                       907,8727  L_NORDIC                                  DOMESTIC                                  DOMESTIC          NO        DKK
H8619624751041                            H4834060964751                                      1418,7859  L_NORDIC                                  DOMESTIC                                  DOMESTIC          NO        DKK
H8619624751041                            H8179630001041                                       502,7891  L_NORDIC                                  DOMESTIC                                  DOMESTIC          NO        DKK
H8639613301041                            H4452610153301                                       231,8960  L_NORDIC                                  DOMESTIC                                  DOMESTIC          NO        DKK
H8639613301041                            H8109540001041                                       231,8960  L_NORDIC                                  DOMESTIC                                  DOMESTIC          NO        DKK
H8669570000001                            H8209660000001                                         0,0077  L_NORDIC                                  DOMESTIC                                  DOMESTIC          NO        DKK
H8669570000001                            H8928270000001                                         0,0077  L_NORDIC                                  DOMESTIC                                  DOMESTIC          NO        DKK
H8669570000001                            H8929920000001                                         0,0077  L_NORDIC                                  DOMESTIC                                  DOMESTIC          NO        DKK
H8669570000001                            H8989660000001                                         0,0077  L_NORDIC                                  DOMESTIC                                  DOMESTIC          NO        DKK
H8262860002861                            H8223860000003                                        66,3924  L_NORDIC                                  EXPORT                                    EXPORT            DK        DKK
H8262860002861                            H8293850000001                                       150,0000  L_NORDIC                                  EXPORT                                    EXPORT            DK        DKK
H8262860002861                            H8912720000001                                         0,6831  L_NORDIC                                  EXPORT                                    EXPORT            DK        DKK
H8262860002861                            H8934400000001                                         6,3457  L_NORDIC                                  EXPORT                                    EXPORT            DK        DKK
H8262860002861                            H8934530000001                                        48,2421  L_NORDIC                                  EXPORT                                    EXPORT            DK        DKK
H8262860002861                            H8941700000001                                         0,0082  L_NORDIC                                  EXPORT                                    EXPORT            DK        DKK
H8262860002861                            HK11800229                                             3,8085  L_NORDIC                                  EXPORT                                    EXPORT            DK        DKK
H8262870002911                            H8252870000001                                       474,2755  L_NORDIC                                  EXPORT                                    EXPORT            DK        EUR
H8262870002911                            H8282830000003                                       372,2727  L_NORDIC                                  EXPORT                                    EXPORT            DK        EUR
H8262870002911                            H8912720000001                                        17,3650  L_NORDIC                                  EXPORT                                    EXPORT            DK        EUR
H8262870002911                            H8934400000001                                        27,3583  L_NORDIC                                  EXPORT                                    EXPORT            DK        EUR
H8262870002911                            H8934450000001                                       210,3341  L_NORDIC                                  EXPORT                                    EXPORT            DK        EUR
H8262870002911                            H8941710000001                                         1,7869  L_NORDIC                                  EXPORT                                    EXPORT            DK        EUR
H8262890002861                            H8252880000001                                        89,3643  L_NORDIC                                  EXPORT                                    EXPORT            DK        DKK
H8262890002861                            H8293850000001                                       150,0000  L_NORDIC                                  EXPORT                                    EXPORT            DK        DKK
H8262890002861                            H8912720000001                                         0,6831  L_NORDIC                                  EXPORT                                    EXPORT            DK        DKK
H8262890002861                            H8934400000001                                         6,3457  L_NORDIC                                  EXPORT                                    EXPORT            DK        DKK
H8262890002861                            H8934530000001                                        48,2421  L_NORDIC                                  EXPORT                                    EXPORT            DK        DKK
H8262890002861                            H8941700000001                                         0,0082  L_NORDIC                                  EXPORT                                    EXPORT            DK        DKK
H8262890002861                            HK11800229                                             3,8085  L_NORDIC                                  EXPORT                                    EXPORT            DK        DKK
H8226160002421                            H8246160000001                                       548,5066  L_NORDIC                                  EXPORT                                    EXPORT            FI        EUR
H8226160002421                            H8276130000009                                       141,0914  L_NORDIC                                  EXPORT                                    EXPORT            FI        EUR
H8250900007831                            H8241500000001                                       150,0000  L_NORDIC                                  EXPORT                                    EXPORT            FI        DKK
H8250900007831                            H8280980007831                                       150,0000  L_NORDIC                                  EXPORT                                    EXPORT            FI        DKK
H8250900007831                            H8909570000001                                        86,2732  L_NORDIC                                  EXPORT                                    EXPORT            FI        DKK
H8251510007831                            H139ZK11800317                                       950,0000  L_NORDIC                                  EXPORT                                    EXPORT            FI        DKK
H8251530007831                            H8241510007151                                      1000,0000  L_NORDIC                                  EXPORT                                    EXPORT            FI        DKK
H8251530007831                            H8281500000001                                        93,5000  L_NORDIC                                  EXPORT                                    EXPORT            FI        DKK
H8251530007831                            H8909570000001                                        86,2732  L_NORDIC                                  EXPORT                                    EXPORT            FI        DKK
H8251530007831                            H8928300000001                                         6,2241  L_NORDIC                                  EXPORT                                    EXPORT            FI        DKK
H8251530007831                            H8929930000001                                       150,0000  L_NORDIC                                  EXPORT                                    EXPORT            FI        DKK
H8251530007831                            H8939610000001                                       150,0000  L_NORDIC                                  EXPORT                                    EXPORT            FI        DKK
H8251530007831                            H8950620000001                                       150,0000  L_NORDIC                                  EXPORT                                    EXPORT            FI        DKK
H8251530007831                            H8961500000001                                       150,0000  L_NORDIC                                  EXPORT                                    EXPORT            FI        DKK
H8251550007831                            H8241520007151                                       150,0000  L_NORDIC                                  EXPORT                                    EXPORT            FI        DKK
H8251550007831                            H8281500000001                                       950,0000  L_NORDIC                                  EXPORT                                    EXPORT            FI        DKK
H8251550007831                            H8909570000001                                        86,2732  L_NORDIC                                  EXPORT                                    EXPORT            FI        DKK
H8251580000001                            H139ZK11800135                                       950,0000  L_NORDIC                                  EXPORT                                    EXPORT            FI        DKK
H8253700007851                            H8283700007851                                        52,5000  L_NORDIC                                  EXPORT                                    EXPORT            FI        DKK
H8262820002861                            A80000007S                                            52,5000  L_NORDIC                                  EXPORT                                    EXPORT            FI        DKK
H8262820002861                            H8252820000001                                       490,1000  L_NORDIC                                  EXPORT                                    EXPORT            FI        DKK
H8262820002861                            H8293850000001                                       150,0000  L_NORDIC                                  EXPORT                                    EXPORT            FI        DKK
H8262820007891                            H8252820000001                                       490,1000  L_NORDIC                                  EXPORT                                    EXPORT            FI        DKK
H8262820007891                            H8293850000001                                       150,0000  L_NORDIC                                  EXPORT                                    EXPORT            FI        DKK
H8262820007891                            H8912720000001                                         0,6831  L_NORDIC                                  EXPORT                                    EXPORT            FI        DKK
H8262820007891                            H8912850000001                                         1,2200  L_NORDIC                                  EXPORT                                    EXPORT            FI        DKK
H8262820007891                            H8941700000001                                         0,0082  L_NORDIC                                  EXPORT                                    EXPORT            FI        DKK
H8262820007891                            HK11800229                                             3,8085  L_NORDIC                                  EXPORT                                    EXPORT            FI        DKK
H8262830002861                            A80000007S                                            52,5000  L_NORDIC                                  EXPORT                                    EXPORT            FI        DKK
H8262830002861                            H8252830000001                                       490,1000  L_NORDIC                                  EXPORT                                    EXPORT            FI        DKK
H8262830002861                            H8293850000001                                       150,0000  L_NORDIC                                  EXPORT                                    EXPORT            FI        DKK
H8262830007891                            H8252830000001                                       490,1000  L_NORDIC                                  EXPORT                                    EXPORT            FI        DKK
H8262830007891                            H8293850000001                                       150,0000  L_NORDIC                                  EXPORT                                    EXPORT            FI        DKK
H8262830007891                            H8912720000001                                         0,6831  L_NORDIC                                  EXPORT                                    EXPORT            FI        DKK
H8262830007891                            H8912850000001                                         1,2200  L_NORDIC                                  EXPORT                                    EXPORT            FI        DKK
H8262830007891                            H8941700000001                                         0,0082  L_NORDIC                                  EXPORT                                    EXPORT            FI        DKK
H8262830007891                            HK11800229                                             3,8085  L_NORDIC                                  EXPORT                                    EXPORT            FI        DKK
H8262870002911                            H8252870000001                                         0,0293  L_NORDIC                                  EXPORT                                    EXPORT            FI        DKK
H8262870002911                            H8282830000003                                        88,5431  L_NORDIC                                  EXPORT                                    EXPORT            FI        DKK
H8262870002911                            H8912720000001                                         4,5015  L_NORDIC                                  EXPORT                                    EXPORT            FI        DKK
H8262870002911                            H8934400000001                                        14,5745  L_NORDIC                                  EXPORT                                    EXPORT            FI        DKK
H8262870002911                            H8934450000001                                         0,0293  L_NORDIC                                  EXPORT                                    EXPORT            FI        DKK
H8262870002911                            H8941710000001                                         1,5554  L_NORDIC                                  EXPORT                                    EXPORT            FI        DKK
H8262870002911                            HK11800001                                            14,4760  L_NORDIC                                  EXPORT                                    EXPORT            FI        DKK
H8262870002911                            HK15800003                                             0,9057  L_NORDIC                                  EXPORT                                    EXPORT            FI        DKK
H8262890002861                            H8252880000001                                        89,3643  L_NORDIC                                  EXPORT                                    EXPORT            FI        DKK
H8262890002861                            H8293850000001                                       150,0000  L_NORDIC                                  EXPORT                                    EXPORT            FI        DKK
H8262890002861                            H8912720000001                                         0,6831  L_NORDIC                                  EXPORT                                    EXPORT            FI        DKK
H8262890002861                            H8934400000001                                         6,3457  L_NORDIC                                  EXPORT                                    EXPORT            FI        DKK
H8262890002861                            H8934530000001                                        48,2421  L_NORDIC                                  EXPORT                                    EXPORT            FI        DKK
H8262890002861                            H8941700000001                                         0,0082  L_NORDIC                                  EXPORT                                    EXPORT            FI        DKK
H8262890002861                            HK11800229                                             3,8085  L_NORDIC                                  EXPORT                                    EXPORT            FI        DKK
H8263860002421                            H8243860000001                                       123,5061  L_NORDIC                                  EXPORT                                    EXPORT            FI        DKK
H8263860002421                            H8283830000001                                        80,2528  L_NORDIC                                  EXPORT                                    EXPORT            FI        DKK
H8263860002421                            H8913540000001                                        19,7283  L_NORDIC                                  EXPORT                                    EXPORT            FI        DKK
H8263860002421                            H8913610000001                                        16,6875  L_NORDIC                                  EXPORT                                    EXPORT            FI        DKK
H8263860002421                            H8913630000001                                         5,6613  L_NORDIC                                  EXPORT                                    EXPORT            FI        DKK
H8263860002421                            H8941710000001                                         1,5554  L_NORDIC                                  EXPORT                                    EXPORT            FI        DKK
H8263860002421                            H8977720000001                                         1,4897  L_NORDIC                                  EXPORT                                    EXPORT            FI        DKK
H8263860002421                            HK11800001                                            14,4760  L_NORDIC                                  EXPORT                                    EXPORT            FI        DKK
H8263860002421                            HK15800003                                             0,9057  L_NORDIC                                  EXPORT                                    EXPORT            FI        DKK
H8279500007801                            H8249500000001                                       210,0000  L_NORDIC                                  EXPORT                                    EXPORT            FI        DKK
H8279500007801                            H8289550000001                                       120,7500  L_NORDIC                                  EXPORT                                    EXPORT            FI        DKK
H8279500007801                            H8939610000001                                         6,7745  L_NORDIC                                  EXPORT                                    EXPORT            FI        DKK
H8279500007801                            H8949520000001                                       189,4592  L_NORDIC                                  EXPORT                                    EXPORT            FI        DKK
H8279500007801                            HK11800247                                             5,7980  L_NORDIC                                  EXPORT                                    EXPORT            FI        DKK
H8279504007801                            H8249504000001                                       210,0000  L_NORDIC                                  EXPORT                                    EXPORT            FI        DKK
